{
  "contractName": "PatientProfile",
  "abi": [
    {
      "constant": true,
      "inputs": [
        {
          "internalType": "address",
          "name": "owner",
          "type": "address"
        }
      ],
      "name": "getProfile",
      "outputs": [
        {
          "internalType": "bytes32",
          "name": "",
          "type": "bytes32"
        }
      ],
      "payable": false,
      "stateMutability": "view",
      "type": "function"
    },
    {
      "constant": false,
      "inputs": [
        {
          "internalType": "address",
          "name": "owner",
          "type": "address"
        },
        {
          "internalType": "bytes32",
          "name": "_documentHash",
          "type": "bytes32"
        },
        {
          "internalType": "uint256",
          "name": "revision",
          "type": "uint256"
        }
      ],
      "name": "setProfile",
      "outputs": [],
      "payable": false,
      "stateMutability": "nonpayable",
      "type": "function"
    },
    {
      "constant": false,
      "inputs": [
        {
          "internalType": "address",
          "name": "owner",
          "type": "address"
        }
      ],
      "name": "removeProfile",
      "outputs": [],
      "payable": false,
      "stateMutability": "nonpayable",
      "type": "function"
    },
    {
      "constant": true,
      "inputs": [
        {
          "internalType": "address",
          "name": "owner",
          "type": "address"
        }
      ],
      "name": "getRevision",
      "outputs": [
        {
          "internalType": "uint256",
          "name": "",
          "type": "uint256"
        }
      ],
      "payable": false,
      "stateMutability": "view",
      "type": "function"
    }
  ],
  "bytecode": "0x608060405234801561001057600080fd5b5061048e806100206000396000f3fe608060405234801561001057600080fd5b506004361061004c5760003560e01c80630f53a470146100515780631483eab0146100a957806363ace51f146100ed578063b5be12e814610145575b600080fd5b6100936004803603602081101561006757600080fd5b81019080803573ffffffffffffffffffffffffffffffffffffffff16906020019092919050505061019d565b6040518082815260200191505060405180910390f35b6100eb600480360360208110156100bf57600080fd5b81019080803573ffffffffffffffffffffffffffffffffffffffff169060200190929190505050610246565b005b6101436004803603606081101561010357600080fd5b81019080803573ffffffffffffffffffffffffffffffffffffffff16906020019092919080359060200190929190803590602001909291905050506102a3565b005b6101876004803603602081101561015b57600080fd5b81019080803573ffffffffffffffffffffffffffffffffffffffff1690602001909291905050506103cb565b6040518082815260200191505060405180910390f35b60008060008373ffffffffffffffffffffffffffffffffffffffff1673ffffffffffffffffffffffffffffffffffffffff16815260200190815260200160002060020160009054906101000a900460ff161561023c576000808373ffffffffffffffffffffffffffffffffffffffff1673ffffffffffffffffffffffffffffffffffffffff168152602001908152602001600020600101549050610241565b600090505b919050565b60008060008373ffffffffffffffffffffffffffffffffffffffff1673ffffffffffffffffffffffffffffffffffffffff16815260200190815260200160002060020160006101000a81548160ff02191690831515021790555050565b6102ab610416565b83816000019073ffffffffffffffffffffffffffffffffffffffff16908173ffffffffffffffffffffffffffffffffffffffff168152505082816020018181525050818160600181815250506001816040019015159081151581525050806000808673ffffffffffffffffffffffffffffffffffffffff1673ffffffffffffffffffffffffffffffffffffffff16815260200190815260200160002060008201518160000160006101000a81548173ffffffffffffffffffffffffffffffffffffffff021916908373ffffffffffffffffffffffffffffffffffffffff1602179055506020820151816001015560408201518160020160006101000a81548160ff0219169083151502179055506060820151816003015590505050505050565b60008060008373ffffffffffffffffffffffffffffffffffffffff1673ffffffffffffffffffffffffffffffffffffffff168152602001908152602001600020600301549050919050565b6040518060800160405280600073ffffffffffffffffffffffffffffffffffffffff1681526020016000801916815260200160001515815260200160008152509056fea265627a7a72315820bbc6fbc2a12fd1d8f60655abeb2ba1631bd141f4c8cde7dd571ff640345da54864736f6c63430005100032",
  "source": "contract PatientProfile {\n    struct Profile {\n        address owner;\n        bytes32 _documentHash;\n        bool valid;\n        uint256 revision;\n    }\n\n    mapping(address => Profile) addressToProfile;\n\n    function getProfile(address owner) public view returns (bytes32) {\n        if (addressToProfile[owner].valid) {\n            return addressToProfile[owner]._documentHash;\n        } else {\n            return \"\";\n        }\n    }\n\n    function setProfile(\n        address owner,\n        bytes32 _documentHash,\n        uint256 revision\n    ) public {\n        Profile memory patient;\n        patient.owner = owner;\n        patient._documentHash = _documentHash;\n        patient.revision = revision;\n        patient.valid = true;\n        addressToProfile[owner] = patient;\n    }\n\n    function removeProfile(address owner) public {\n        addressToProfile[owner].valid = false;\n    }\n\n    function getRevision(address owner) public view returns (uint256) {\n        return addressToProfile[owner].revision;\n    }\n}\n",
  "sourcePath": "/Users/patrick/Documents/workspace/Senior_project/EHR_Blockchain/backend/patient-profile-service/contracts/PatientProfile.sol",
  "compiler": {
    "name": "solc",
    "version": "0.5.16+commit.9c3226ce.Emscripten.clang"
  },
  "schemaVersion": "3.2.2",
  "updatedAt": "2020-08-31T06:17:09.739Z",
  "networkType": "quorum",
  "devdoc": {
    "methods": {}
  },
  "userdoc": {
    "methods": {}
  }
}