{
  "contractName": "PatientProfile",
  "abi": [
    {
      "constant": true,
      "inputs": [
        {
          "internalType": "string",
          "name": "personalId",
          "type": "string"
        }
      ],
      "name": "getProfileById",
      "outputs": [
        {
          "internalType": "bytes32",
          "name": "",
          "type": "bytes32"
        }
      ],
      "payable": false,
      "stateMutability": "view",
      "type": "function"
    },
    {
      "constant": true,
      "inputs": [
        {
          "internalType": "address",
          "name": "owner",
          "type": "address"
        }
      ],
      "name": "getProfile",
      "outputs": [
        {
          "internalType": "bytes32",
          "name": "",
          "type": "bytes32"
        }
      ],
      "payable": false,
      "stateMutability": "view",
      "type": "function"
    },
    {
      "constant": false,
      "inputs": [
        {
          "internalType": "string",
          "name": "personalId",
          "type": "string"
        },
        {
          "internalType": "address",
          "name": "owner",
          "type": "address"
        },
        {
          "internalType": "bytes32",
          "name": "_documentHash",
          "type": "bytes32"
        },
        {
          "internalType": "uint256",
          "name": "revision",
          "type": "uint256"
        }
      ],
      "name": "setProfile",
      "outputs": [],
      "payable": false,
      "stateMutability": "nonpayable",
      "type": "function"
    },
    {
      "constant": false,
      "inputs": [
        {
          "internalType": "address",
          "name": "owner",
          "type": "address"
        },
        {
          "internalType": "string",
          "name": "id",
          "type": "string"
        }
      ],
      "name": "setWhiteList",
      "outputs": [],
      "payable": false,
      "stateMutability": "nonpayable",
      "type": "function"
    },
    {
      "constant": true,
      "inputs": [
        {
          "internalType": "string",
          "name": "personalId",
          "type": "string"
        },
        {
          "internalType": "string",
          "name": "id",
          "type": "string"
        }
      ],
      "name": "checkWhiteList",
      "outputs": [
        {
          "internalType": "bool",
          "name": "",
          "type": "bool"
        }
      ],
      "payable": false,
      "stateMutability": "view",
      "type": "function"
    },
    {
      "constant": false,
      "inputs": [
        {
          "internalType": "address",
          "name": "owner",
          "type": "address"
        }
      ],
      "name": "removeProfile",
      "outputs": [],
      "payable": false,
      "stateMutability": "nonpayable",
      "type": "function"
    },
    {
      "constant": true,
      "inputs": [
        {
          "internalType": "address",
          "name": "owner",
          "type": "address"
        }
      ],
      "name": "getRevision",
      "outputs": [
        {
          "internalType": "uint256",
          "name": "",
          "type": "uint256"
        }
      ],
      "payable": false,
      "stateMutability": "view",
      "type": "function"
    },
    {
      "constant": true,
      "inputs": [
        {
          "internalType": "address",
          "name": "owner",
          "type": "address"
        }
      ],
      "name": "checkValid",
      "outputs": [
        {
          "internalType": "bool",
          "name": "",
          "type": "bool"
        }
      ],
      "payable": false,
      "stateMutability": "view",
      "type": "function"
    },
    {
      "constant": true,
      "inputs": [
        {
          "internalType": "string",
          "name": "personalId",
          "type": "string"
        }
      ],
      "name": "checkValidByPersonalId",
      "outputs": [
        {
          "internalType": "bool",
          "name": "",
          "type": "bool"
        }
      ],
      "payable": false,
      "stateMutability": "view",
      "type": "function"
    }
  ],
  "bytecode": "0x608060405234801561001057600080fd5b5061134a806100206000396000f3fe608060405234801561001057600080fd5b50600436106100935760003560e01c8063a84a48e411610066578063a84a48e4146102fa578063b5be12e8146103cd578063d06186a114610425578063d6fb51d514610500578063d72dff74146105cf57610093565b80630f53a470146100985780631483eab0146100f057806351c482171461013457806399de55921461029e575b600080fd5b6100da600480360360208110156100ae57600080fd5b81019080803573ffffffffffffffffffffffffffffffffffffffff1690602001909291905050506106be565b6040518082815260200191505060405180910390f35b6101326004803603602081101561010657600080fd5b81019080803573ffffffffffffffffffffffffffffffffffffffff169060200190929190505050610767565b005b6102846004803603604081101561014a57600080fd5b810190808035906020019064010000000081111561016757600080fd5b82018360208201111561017957600080fd5b8035906020019184600183028401116401000000008311171561019b57600080fd5b91908080601f016020809104026020016040519081016040528093929190818152602001838380828437600081840152601f19601f820116905080830192505050505050509192919290803590602001906401000000008111156101fe57600080fd5b82018360208201111561021057600080fd5b8035906020019184600183028401116401000000008311171561023257600080fd5b91908080601f016020809104026020016040519081016040528093929190818152602001838380828437600081840152601f19601f820116905080830192505050505050509192919290505050610891565b604051808215151515815260200191505060405180910390f35b6102e0600480360360208110156102b457600080fd5b81019080803573ffffffffffffffffffffffffffffffffffffffff169060200190929190505050610aa5565b604051808215151515815260200191505060405180910390f35b6103b36004803603602081101561031057600080fd5b810190808035906020019064010000000081111561032d57600080fd5b82018360208201111561033f57600080fd5b8035906020019184600183028401116401000000008311171561036157600080fd5b91908080601f016020809104026020016040519081016040528093929190818152602001838380828437600081840152601f19601f820116905080830192505050505050509192919290505050610afd565b604051808215151515815260200191505060405180910390f35b61040f600480360360208110156103e357600080fd5b81019080803573ffffffffffffffffffffffffffffffffffffffff169060200190929190505050610b80565b6040518082815260200191505060405180910390f35b6104fe6004803603604081101561043b57600080fd5b81019080803573ffffffffffffffffffffffffffffffffffffffff1690602001909291908035906020019064010000000081111561047857600080fd5b82018360208201111561048a57600080fd5b803590602001918460018302840111640100000000831117156104ac57600080fd5b91908080601f016020809104026020016040519081016040528093929190818152602001838380828437600081840152601f19601f820116905080830192505050505050509192919290505050610bcb565b005b6105b96004803603602081101561051657600080fd5b810190808035906020019064010000000081111561053357600080fd5b82018360208201111561054557600080fd5b8035906020019184600183028401116401000000008311171561056757600080fd5b91908080601f016020809104026020016040519081016040528093929190818152602001838380828437600081840152601f19601f820116905080830192505050505050509192919290505050610d3e565b6040518082815260200191505060405180910390f35b6106bc600480360360808110156105e557600080fd5b810190808035906020019064010000000081111561060257600080fd5b82018360208201111561061457600080fd5b8035906020019184600183028401116401000000008311171561063657600080fd5b91908080601f016020809104026020016040519081016040528093929190818152602001838380828437600081840152601f19601f820116905080830192505050505050509192919290803573ffffffffffffffffffffffffffffffffffffffff1690602001909291908035906020019092919080359060200190929190505050610e3d565b005b60008060008373ffffffffffffffffffffffffffffffffffffffff1673ffffffffffffffffffffffffffffffffffffffff16815260200190815260200160002060030160009054906101000a900460ff161561075d576000808373ffffffffffffffffffffffffffffffffffffffff1673ffffffffffffffffffffffffffffffffffffffff168152602001908152602001600020600201549050610762565b600090505b919050565b60008060008373ffffffffffffffffffffffffffffffffffffffff1673ffffffffffffffffffffffffffffffffffffffff16815260200190815260200160002060030160006101000a81548160ff021916908315150217905550600060016000808473ffffffffffffffffffffffffffffffffffffffff1673ffffffffffffffffffffffffffffffffffffffff16815260200190815260200160002060000160405180828054600181600116156101000203166002900480156108615780601f1061083f576101008083540402835291820191610861565b820191906000526020600020905b81548152906001019060200180831161084d575b5050915050908152602001604051809103902060030160006101000a81548160ff02191690831515021790555050565b600080600090505b6001846040518082805190602001908083835b602083106108cf57805182526020820191506020810190506020830392506108ac565b6001836020036101000a038019825116818451168082178552505050505050905001915050908152602001604051809103902060050180549050811015610a9957826040516020018082805190602001908083835b602083106109475780518252602082019150602081019050602083039250610924565b6001836020036101000a038019825116818451168082178552505050505050905001915050604051602081830303815290604052805190602001206001856040518082805190602001908083835b602083106109b85780518252602082019150602081019050602083039250610995565b6001836020036101000a038019825116818451168082178552505050505050905001915050908152602001604051809103902060050182815481106109f957fe5b906000526020600020016040516020018082805460018160011615610100020316600290048015610a615780601f10610a3f576101008083540402835291820191610a61565b820191906000526020600020905b815481529060010190602001808311610a4d575b5050915050604051602081830303815290604052805190602001201415610a8c576001915050610a9f565b8080600101915050610899565b50600090505b92915050565b60008060008373ffffffffffffffffffffffffffffffffffffffff1673ffffffffffffffffffffffffffffffffffffffff16815260200190815260200160002060030160009054906101000a900460ff169050919050565b60006001826040518082805190602001908083835b60208310610b355780518252602082019150602081019050602083039250610b12565b6001836020036101000a038019825116818451168082178552505050505050905001915050908152602001604051809103902060030160009054906101000a900460ff169050919050565b60008060008373ffffffffffffffffffffffffffffffffffffffff1673ffffffffffffffffffffffffffffffffffffffff168152602001908152602001600020600401549050919050565b6000808373ffffffffffffffffffffffffffffffffffffffff1673ffffffffffffffffffffffffffffffffffffffff168152602001908152602001600020600501819080600181540180825580915050906001820390600052602060002001600090919290919091509080519060200190610c479291906110cb565b505060016000808473ffffffffffffffffffffffffffffffffffffffff1673ffffffffffffffffffffffffffffffffffffffff1681526020019081526020016000206000016040518082805460018160011615610100020316600290048015610ce75780601f10610cc5576101008083540402835291820191610ce7565b820191906000526020600020905b815481529060010190602001808311610cd3575b50509150509081526020016040518091039020600501819080600181540180825580915050906001820390600052602060002001600090919290919091509080519060200190610d389291906110cb565b50505050565b60006001826040518082805190602001908083835b60208310610d765780518252602082019150602081019050602083039250610d53565b6001836020036101000a038019825116818451168082178552505050505050905001915050908152602001604051809103902060030160009054906101000a900460ff1615610e33576001826040518082805190602001908083835b60208310610df55780518252602082019150602081019050602083039250610dd2565b6001836020036101000a0380198251168184511680821785525050505050509050019150509081526020016040518091039020600201549050610e38565b600090505b919050565b610e4561114b565b84816000018190525083816020019073ffffffffffffffffffffffffffffffffffffffff16908173ffffffffffffffffffffffffffffffffffffffff168152505082816040018181525050818160800181815250506001816060019015159081151581525050806000808673ffffffffffffffffffffffffffffffffffffffff1673ffffffffffffffffffffffffffffffffffffffff1681526020019081526020016000206000820151816000019080519060200190610f0692919061119c565b5060208201518160010160006101000a81548173ffffffffffffffffffffffffffffffffffffffff021916908373ffffffffffffffffffffffffffffffffffffffff1602179055506040820151816002015560608201518160030160006101000a81548160ff0219169083151502179055506080820151816004015560a0820151816005019080519060200190610f9e92919061121c565b50905050806001866040518082805190602001908083835b60208310610fd95780518252602082019150602081019050602083039250610fb6565b6001836020036101000a0380198251168184511680821785525050505050509050019150509081526020016040518091039020600082015181600001908051906020019061102892919061119c565b5060208201518160010160006101000a81548173ffffffffffffffffffffffffffffffffffffffff021916908373ffffffffffffffffffffffffffffffffffffffff1602179055506040820151816002015560608201518160030160006101000a81548160ff0219169083151502179055506080820151816004015560a08201518160050190805190602001906110c092919061121c565b509050505050505050565b828054600181600116156101000203166002900490600052602060002090601f016020900481019282601f1061110c57805160ff191683800117855561113a565b8280016001018555821561113a579182015b8281111561113957825182559160200191906001019061111e565b5b509050611147919061127c565b5090565b6040518060c0016040528060608152602001600073ffffffffffffffffffffffffffffffffffffffff1681526020016000801916815260200160001515815260200160008152602001606081525090565b828054600181600116156101000203166002900490600052602060002090601f016020900481019282601f106111dd57805160ff191683800117855561120b565b8280016001018555821561120b579182015b8281111561120a5782518255916020019190600101906111ef565b5b509050611218919061127c565b5090565b82805482825590600052602060002090810192821561126b579160200282015b8281111561126a57825182908051906020019061125a92919061119c565b509160200191906001019061123c565b5b50905061127891906112a1565b5090565b61129e91905b8082111561129a576000816000905550600101611282565b5090565b90565b6112ca91905b808211156112c657600081816112bd91906112cd565b506001016112a7565b5090565b90565b50805460018160011615610100020316600290046000825580601f106112f35750611312565b601f016020900490600052602060002090810190611311919061127c565b5b5056fea265627a7a723158203c0927f0081721a67a6230c0a0001610d18da3b4fc5fbffa0a1add13ca5d10ed64736f6c63430005100032",
  "source": "contract PatientProfile {\n\n    struct Profile {\n        string personalId;\n        address owner;\n        bytes32 _documentHash;\n        bool valid;\n        uint256 revision;\n        string[] whitelist;\n    }\n\n    mapping(address => Profile) addressToProfile;\n    mapping(string => Profile) personalIdToProfile;\n\n    function getProfileById(string memory personalId) public view returns (bytes32) {\n        if (personalIdToProfile[personalId].valid) {\n            return personalIdToProfile[personalId]._documentHash;\n        } else {\n            return \"\";\n        }\n    }\n    function getProfile(address owner) public view returns (bytes32) {\n        if (addressToProfile[owner].valid) {\n            return addressToProfile[owner]._documentHash;\n        } else {\n            return \"\";\n        }\n    }\n\n    function setProfile(\n        string memory personalId,\n        address owner,\n        bytes32 _documentHash,\n        uint256 revision\n    ) public {\n        Profile memory patient;\n        patient.personalId = personalId;\n        patient.owner = owner;\n        patient._documentHash = _documentHash;\n        patient.revision = revision;\n        patient.valid = true;\n        addressToProfile[owner] = patient;\n        personalIdToProfile[personalId] = patient;\n    }\n    function setWhiteList(\n        address owner,\n        string memory id\n    ) public {\n        addressToProfile[owner].whitelist.push(id);\n        personalIdToProfile[addressToProfile[owner].personalId].whitelist.push(id);\n    }\n\n    function checkWhiteList(\n        string memory personalId,\n        string memory id\n    ) public view returns (bool){\n        for(uint i = 0; i < personalIdToProfile[personalId].whitelist.length; i++){\n            if(keccak256(abi.encodePacked((personalIdToProfile[personalId].whitelist[i]))) == keccak256(abi.encodePacked((id)))){\n                return true;\n            }\n        }\n        return false;\n    }\n\n    function removeProfile(address owner) public {\n        addressToProfile[owner].valid = false;\n        personalIdToProfile[addressToProfile[owner].personalId].valid = false;\n    }\n\n    function getRevision(address owner) public view returns (uint256) {\n        return addressToProfile[owner].revision;\n    }\n    function checkValid(address owner) public view returns (bool){\n        return addressToProfile[owner].valid;\n    }\n    function checkValidByPersonalId(string memory personalId) public view returns (bool){\n        return personalIdToProfile[personalId].valid;\n    }\n}\n",
  "sourcePath": "/Users/patrick/Documents/workspace/Senior_project/EHR_Blockchain/backend/patient-profile-service/contracts/PatientProfile.sol",
  "compiler": {
    "name": "solc",
    "version": "0.5.16+commit.9c3226ce.Emscripten.clang"
  },
  "schemaVersion": "3.2.2",
  "updatedAt": "2020-09-01T09:04:50.300Z",
  "networkType": "quorum",
  "devdoc": {
    "methods": {}
  },
  "userdoc": {
    "methods": {}
  }
}