{
  "contractName": "AllergyIntoleranceContract",
  "abi": [
    {
      "constant": false,
      "inputs": [
        {
          "internalType": "string",
          "name": "personalId",
          "type": "string"
        },
        {
          "internalType": "string",
          "name": "allergyIntoleranceId",
          "type": "string"
        },
        {
          "internalType": "bytes32",
          "name": "documentHash",
          "type": "bytes32"
        }
      ],
      "name": "setAllerygyIntolerance",
      "outputs": [],
      "payable": false,
      "stateMutability": "nonpayable",
      "type": "function"
    },
    {
      "constant": true,
      "inputs": [
        {
          "internalType": "string",
          "name": "allergyIntoleranceId",
          "type": "string"
        }
      ],
      "name": "getAllergyIntoleranceByAllergyIntoleranceId",
      "outputs": [
        {
          "internalType": "bytes32",
          "name": "",
          "type": "bytes32"
        }
      ],
      "payable": false,
      "stateMutability": "view",
      "type": "function"
    },
    {
      "constant": true,
      "inputs": [
        {
          "internalType": "string",
          "name": "personalId",
          "type": "string"
        }
      ],
      "name": "getAllergyIntoleranceByPersonalId",
      "outputs": [
        {
          "internalType": "bytes32[]",
          "name": "",
          "type": "bytes32[]"
        }
      ],
      "payable": false,
      "stateMutability": "view",
      "type": "function"
    }
  ],
  "bytecode": "0x608060405234801561001057600080fd5b50610639806100206000396000f3fe608060405234801561001057600080fd5b50600436106100415760003560e01c8063195faaf614610046578063d6923d1414610115578063e4b8916d14610271575b600080fd5b6100ff6004803603602081101561005c57600080fd5b810190808035906020019064010000000081111561007957600080fd5b82018360208201111561008b57600080fd5b803590602001918460018302840111640100000000831117156100ad57600080fd5b91908080601f016020809104026020016040519081016040528093929190818152602001838380828437600081840152601f19601f820116905080830192505050505050509192919290505050610381565b6040518082815260200191505060405180910390f35b61026f6004803603606081101561012b57600080fd5b810190808035906020019064010000000081111561014857600080fd5b82018360208201111561015a57600080fd5b8035906020019184600183028401116401000000008311171561017c57600080fd5b91908080601f016020809104026020016040519081016040528093929190818152602001838380828437600081840152601f19601f820116905080830192505050505050509192919290803590602001906401000000008111156101df57600080fd5b8201836020820111156101f157600080fd5b8035906020019184600183028401116401000000008311171561021357600080fd5b91908080601f016020809104026020016040519081016040528093929190818152602001838380828437600081840152601f19601f820116905080830192505050505050509192919290803590602001909291905050506103f4565b005b61032a6004803603602081101561028757600080fd5b81019080803590602001906401000000008111156102a457600080fd5b8201836020820111156102b657600080fd5b803590602001918460018302840111640100000000831117156102d857600080fd5b91908080601f016020809104026020016040519081016040528093929190818152602001838380828437600081840152601f19601f82011690508083019250505050505050919291929050505061051f565b6040518080602001828103825283818151815260200191508051906020019060200280838360005b8381101561036d578082015181840152602081019050610352565b505050509050019250505060405180910390f35b60006001826040518082805190602001908083835b602083106103b95780518252602082019150602081019050602083039250610396565b6001836020036101000a0380198251168184511680821785525050505050509050019150509081526020016040518091039020549050919050565b6103fc6105e0565b838160000181905250828160200181905250818160400181815250506000846040518082805190602001908083835b6020831061044e578051825260208201915060208101905060208303925061042b565b6001836020036101000a0380198251168184511680821785525050505050509050019150509081526020016040518091039020829080600181540180825580915050906001820390600052602060002001600090919290919091505550816001846040518082805190602001908083835b602083106104e257805182526020820191506020810190506020830392506104bf565b6001836020036101000a03801982511681845116808217855250505050505090500191505090815260200160405180910390208190555050505050565b60606000826040518082805190602001908083835b602083106105575780518252602082019150602081019050602083039250610534565b6001836020036101000a03801982511681845116808217855250505050505090500191505090815260200160405180910390208054806020026020016040519081016040528092919081815260200182805480156105d457602002820191906000526020600020905b8154815260200190600101908083116105c0575b50505050509050919050565b6040518060600160405280606081526020016060815260200160008019168152509056fea265627a7a72315820add3d00e8d13f2a6ebfb820516450bad396857dc0ffebf094e1925f37a1ce96e64736f6c63430005100032",
  "source": "contract AllergyIntoleranceContract {\n    struct AllergyIntolerance {\n        string personalId;\n        string allergyIntoleranceId;\n        bytes32 documentHash;\n    }\n\n    mapping(string => bytes32[]) personalIdToAllergyIntolerance;\n    mapping(string => bytes32) allergyIntoleranceIdToAllergyIntolerance;\n\n    //Set AllergyIntolerance\n    function setAllerygyIntolerance(\n        string memory personalId,\n        string memory allergyIntoleranceId,\n        bytes32 documentHash\n    ) public {\n        AllergyIntolerance memory allergyIntolerance;\n        allergyIntolerance.personalId = personalId;\n        allergyIntolerance.allergyIntoleranceId = allergyIntoleranceId;\n        allergyIntolerance.documentHash = documentHash;\n        personalIdToAllergyIntolerance[personalId].push(documentHash);\n        allergyIntoleranceIdToAllergyIntolerance[allergyIntoleranceId] = documentHash;\n    }\n\n    //Get AllergyIntolerance by AllergyIntoleranceId\n    function getAllergyIntoleranceByAllergyIntoleranceId(string memory allergyIntoleranceId)\n        public\n        view\n        returns (bytes32)\n    {\n        return allergyIntoleranceIdToAllergyIntolerance[allergyIntoleranceId];\n    }\n\n    //Get ALL AllergyIntolerance of patient\n    function getAllergyIntoleranceByPersonalId(string memory personalId)\n        public\n        view\n        returns (bytes32[] memory)\n    {\n        return personalIdToAllergyIntolerance[personalId];\n    }\n}\n",
  "sourcePath": "/Users/patrick/Documents/workspace/Senior_project/EHR_Blockchain/backend/health-check-service/contracts/AllergyIntolerance.sol",
  "compiler": {
    "name": "solc",
    "version": "0.5.16+commit.9c3226ce.Emscripten.clang"
  },
  "schemaVersion": "3.2.2",
  "updatedAt": "2021-05-03T07:56:52.946Z",
  "networkType": "quorum",
  "devdoc": {
    "methods": {}
  },
  "userdoc": {
    "methods": {}
  }
}