{
  "contractName": "EncounterContract",
  "abi": [
    {
      "constant": false,
      "inputs": [
        {
          "internalType": "string",
          "name": "personalId",
          "type": "string"
        },
        {
          "internalType": "string",
          "name": "encounterId",
          "type": "string"
        },
        {
          "internalType": "bytes32",
          "name": "documentHash",
          "type": "bytes32"
        }
      ],
      "name": "setEncounter",
      "outputs": [],
      "payable": false,
      "stateMutability": "nonpayable",
      "type": "function"
    },
    {
      "constant": true,
      "inputs": [
        {
          "internalType": "string",
          "name": "encounterId",
          "type": "string"
        }
      ],
      "name": "getEncounterByEncounterId",
      "outputs": [
        {
          "internalType": "bytes32",
          "name": "",
          "type": "bytes32"
        }
      ],
      "payable": false,
      "stateMutability": "view",
      "type": "function"
    },
    {
      "constant": true,
      "inputs": [
        {
          "internalType": "string",
          "name": "personalId",
          "type": "string"
        }
      ],
      "name": "getEncounterByPersonalId",
      "outputs": [
        {
          "internalType": "bytes32[]",
          "name": "",
          "type": "bytes32[]"
        }
      ],
      "payable": false,
      "stateMutability": "view",
      "type": "function"
    }
  ],
  "bytecode": "0x608060405234801561001057600080fd5b50610639806100206000396000f3fe608060405234801561001057600080fd5b50600436106100415760003560e01c80631477d73e1461004657806361c3ab71146101a2578063e2998ea9146102b2575b600080fd5b6101a06004803603606081101561005c57600080fd5b810190808035906020019064010000000081111561007957600080fd5b82018360208201111561008b57600080fd5b803590602001918460018302840111640100000000831117156100ad57600080fd5b91908080601f016020809104026020016040519081016040528093929190818152602001838380828437600081840152601f19601f8201169050808301925050505050505091929192908035906020019064010000000081111561011057600080fd5b82018360208201111561012257600080fd5b8035906020019184600183028401116401000000008311171561014457600080fd5b91908080601f016020809104026020016040519081016040528093929190818152602001838380828437600081840152601f19601f82011690508083019250505050505050919291929080359060200190929190505050610381565b005b61025b600480360360208110156101b857600080fd5b81019080803590602001906401000000008111156101d557600080fd5b8201836020820111156101e757600080fd5b8035906020019184600183028401116401000000008311171561020957600080fd5b91908080601f016020809104026020016040519081016040528093929190818152602001838380828437600081840152601f19601f8201169050808301925050505050505091929192905050506104ac565b6040518080602001828103825283818151815260200191508051906020019060200280838360005b8381101561029e578082015181840152602081019050610283565b505050509050019250505060405180910390f35b61036b600480360360208110156102c857600080fd5b81019080803590602001906401000000008111156102e557600080fd5b8201836020820111156102f757600080fd5b8035906020019184600183028401116401000000008311171561031957600080fd5b91908080601f016020809104026020016040519081016040528093929190818152602001838380828437600081840152601f19601f82011690508083019250505050505050919291929050505061056d565b6040518082815260200191505060405180910390f35b6103896105e0565b838160000181905250828160200181905250818160400181815250506000846040518082805190602001908083835b602083106103db57805182526020820191506020810190506020830392506103b8565b6001836020036101000a0380198251168184511680821785525050505050509050019150509081526020016040518091039020829080600181540180825580915050906001820390600052602060002001600090919290919091505550816001846040518082805190602001908083835b6020831061046f578051825260208201915060208101905060208303925061044c565b6001836020036101000a03801982511681845116808217855250505050505090500191505090815260200160405180910390208190555050505050565b60606000826040518082805190602001908083835b602083106104e457805182526020820191506020810190506020830392506104c1565b6001836020036101000a038019825116818451168082178552505050505050905001915050908152602001604051809103902080548060200260200160405190810160405280929190818152602001828054801561056157602002820191906000526020600020905b81548152602001906001019080831161054d575b50505050509050919050565b60006001826040518082805190602001908083835b602083106105a55780518252602082019150602081019050602083039250610582565b6001836020036101000a0380198251168184511680821785525050505050509050019150509081526020016040518091039020549050919050565b6040518060600160405280606081526020016060815260200160008019168152509056fea265627a7a72315820d20253932dc182f176b613833891597d8a6926f4cfcad82fe3e5dbaeb194d0b564736f6c63430005100032",
  "source": "contract EncounterContract {\n    struct Encounter {\n        // ID, Class, Subject, Participant, ServiceProvider, Issued, ReasonCode\n        string personalId;\n        string encounterId;\n        bytes32 documentHash;\n    }\n\n    mapping(string => bytes32[]) personalIdToEncounter;\n    mapping(string => bytes32) encounterIdToEncounter;\n\n    //Set Encounter\n    function setEncounter(\n        string memory personalId,\n        string memory encounterId,\n        bytes32 documentHash\n    ) public {\n        Encounter memory encounter;\n        encounter.personalId = personalId;\n        encounter.encounterId = encounterId;\n        encounter.documentHash = documentHash;\n        personalIdToEncounter[personalId].push(documentHash);\n        encounterIdToEncounter[encounterId] = documentHash;\n    }\n\n    //Get Encounter by encounterId\n    function getEncounterByEncounterId(string memory encounterId)\n        public\n        view\n        returns (bytes32)\n    {\n        return encounterIdToEncounter[encounterId];\n    }\n\n    //Get ALL Encounter of patient\n    function getEncounterByPersonalId(string memory personalId)\n        public\n        view\n        returns (bytes32[] memory)\n    {\n        return personalIdToEncounter[personalId];\n    }\n}\n",
  "sourcePath": "/Users/patrick/Documents/workspace/Senior_project/EHR_Blockchain/backend/health-check-service/contracts/Encounter.sol",
  "compiler": {
    "name": "solc",
    "version": "0.5.16+commit.9c3226ce.Emscripten.clang"
  },
  "schemaVersion": "3.2.2",
  "updatedAt": "2021-05-03T07:56:48.452Z",
  "networkType": "quorum",
  "devdoc": {
    "methods": {}
  },
  "userdoc": {
    "methods": {}
  }
}