{
  "contractName": "ObservationContract",
  "abi": [
    {
      "constant": false,
      "inputs": [
        {
          "internalType": "string",
          "name": "personalId",
          "type": "string"
        },
        {
          "internalType": "string",
          "name": "observationId",
          "type": "string"
        },
        {
          "internalType": "string",
          "name": "encounterId",
          "type": "string"
        },
        {
          "internalType": "bytes32",
          "name": "documentHash",
          "type": "bytes32"
        }
      ],
      "name": "setObservation",
      "outputs": [],
      "payable": false,
      "stateMutability": "nonpayable",
      "type": "function"
    },
    {
      "constant": true,
      "inputs": [
        {
          "internalType": "string",
          "name": "observationId",
          "type": "string"
        }
      ],
      "name": "getObservationByObservationId",
      "outputs": [
        {
          "internalType": "bytes32",
          "name": "",
          "type": "bytes32"
        }
      ],
      "payable": false,
      "stateMutability": "view",
      "type": "function"
    },
    {
      "constant": true,
      "inputs": [
        {
          "internalType": "string",
          "name": "encounterId",
          "type": "string"
        }
      ],
      "name": "getObservationByEncounterId",
      "outputs": [
        {
          "internalType": "bytes32[]",
          "name": "",
          "type": "bytes32[]"
        }
      ],
      "payable": false,
      "stateMutability": "view",
      "type": "function"
    }
  ],
  "bytecode": "0x608060405234801561001057600080fd5b506106d0806100206000396000f3fe608060405234801561001057600080fd5b50600436106100415760003560e01c80632fba146514610046578063c804a45414610156578063eaab186514610349575b600080fd5b6100ff6004803603602081101561005c57600080fd5b810190808035906020019064010000000081111561007957600080fd5b82018360208201111561008b57600080fd5b803590602001918460018302840111640100000000831117156100ad57600080fd5b91908080601f016020809104026020016040519081016040528093929190818152602001838380828437600081840152601f19601f820116905080830192505050505050509192919290505050610418565b6040518080602001828103825283818151815260200191508051906020019060200280838360005b83811015610142578082015181840152602081019050610127565b505050509050019250505060405180910390f35b6103476004803603608081101561016c57600080fd5b810190808035906020019064010000000081111561018957600080fd5b82018360208201111561019b57600080fd5b803590602001918460018302840111640100000000831117156101bd57600080fd5b91908080601f016020809104026020016040519081016040528093929190818152602001838380828437600081840152601f19601f8201169050808301925050505050505091929192908035906020019064010000000081111561022057600080fd5b82018360208201111561023257600080fd5b8035906020019184600183028401116401000000008311171561025457600080fd5b91908080601f016020809104026020016040519081016040528093929190818152602001838380828437600081840152601f19601f820116905080830192505050505050509192919290803590602001906401000000008111156102b757600080fd5b8201836020820111156102c957600080fd5b803590602001918460018302840111640100000000831117156102eb57600080fd5b91908080601f016020809104026020016040519081016040528093929190818152602001838380828437600081840152601f19601f820116905080830192505050505050509192919290803590602001909291905050506104d9565b005b6104026004803603602081101561035f57600080fd5b810190808035906020019064010000000081111561037c57600080fd5b82018360208201111561038e57600080fd5b803590602001918460018302840111640100000000831117156103b057600080fd5b91908080601f016020809104026020016040519081016040528093929190818152602001838380828437600081840152601f19601f820116905080830192505050505050509192919290505050610605565b6040518082815260200191505060405180910390f35b60606001826040518082805190602001908083835b60208310610450578051825260208201915060208101905060208303925061042d565b6001836020036101000a03801982511681845116808217855250505050505090500191505090815260200160405180910390208054806020026020016040519081016040528092919081815260200182805480156104cd57602002820191906000526020600020905b8154815260200190600101908083116104b9575b50505050509050919050565b6104e1610677565b84816000018190525083816020018190525081816040018181525050816000856040518082805190602001908083835b602083106105345780518252602082019150602081019050602083039250610511565b6001836020036101000a0380198251168184511680821785525050505050509050019150509081526020016040518091039020819055506001836040518082805190602001908083835b602083106105a1578051825260208201915060208101905060208303925061057e565b6001836020036101000a03801982511681845116808217855250505050505090500191505090815260200160405180910390208290806001815401808255809150509060018203906000526020600020016000909192909190915055505050505050565b600080826040518082805190602001908083835b6020831061063c5780518252602082019150602081019050602083039250610619565b6001836020036101000a0380198251168184511680821785525050505050509050019150509081526020016040518091039020549050919050565b6040518060600160405280606081526020016060815260200160008019168152509056fea265627a7a723158200324fb2f7fc7075b2dcad9f370a94b128cfd38a87e9b6f0d01308c3b91474ff564736f6c63430005100032",
  "source": "contract ObservationContract {\n    struct Observation {\n        // ID, Class, Subject, Participant, ServiceProvider, Issued, ReasonCode\n        string personalId;\n        string observationId;\n        bytes32 documentHash;\n    }\n    // mapping(string => bytes32[]) personalIdToObservation;\n    mapping(string => bytes32) observationIdToObservation;\n    mapping(string => bytes32[]) encounterIdToObservation;\n\n    //Set Observation\n    function setObservation(\n        string memory personalId,\n        string memory observationId,\n        string memory encounterId,\n        bytes32 documentHash\n    ) public {\n        Observation memory observation;\n        observation.personalId = personalId;\n        observation.observationId = observationId;\n        observation.documentHash = documentHash;\n        // personalIdToObservation[personalId].push(documentHash);\n        observationIdToObservation[observationId] = documentHash;\n        encounterIdToObservation[encounterId].push(documentHash);\n    }\n\n    //Get Observation by observationId\n    function getObservationByObservationId(string memory observationId)\n        public\n        view\n        returns (bytes32)\n    {\n        return observationIdToObservation[observationId];\n    }\n\n\n    //Get Observation by encounterId\n    function getObservationByEncounterId(string memory encounterId)\n        public\n        view\n        returns (bytes32[] memory)\n    {\n        return encounterIdToObservation[encounterId];\n    }\n}\n",
  "sourcePath": "/Users/patrick/Documents/workspace/Senior_project/EHR_Blockchain/backend/health-check-service/contracts/Observation.sol",
  "compiler": {
    "name": "solc",
    "version": "0.5.16+commit.9c3226ce.Emscripten.clang"
  },
  "schemaVersion": "3.2.2",
  "updatedAt": "2021-02-15T13:41:25.664Z",
  "networkType": "quorum",
  "devdoc": {
    "methods": {}
  },
  "userdoc": {
    "methods": {}
  }
}